:100000000202E8418047004180880000908089EB2F
:10001000F0A3EAF0A3E9F0A3EDF0F1B490808874C6
:1000200001F090808CE0FF7E0078487C807D01901C
:100030008089E0FBA3E0FAA3E0F931367B017A8006
:1000400079489080917420F07F01A1AF222290C75F
:0E005000DBE0FF22D2A72275D901220213B2F3
:10006300021117E709F608DFFA8046E709F208DF0D
:10007300FA803E88828C83E709F0A3DFFA8032E3BB
:1000830009F608DFFA8078E309F208DFFA8070885E
:10009300828C83E309F0A3DFFA806489828A83E098
:1000A300A3F608DFFA805889828A83E0A3F208DF87
:1000B300FA804C80D280FA80C680D4806980F28036
:1000C30033801080A680EA809A80A880DA80E2805C
:1000D300CA803389828A83ECFAE493A3C8C582C8B1
:1000E300CCC583CCF0A3C8C582C8CCC583CCDFE91B
:1000F300DEE7800D89828A83E493A3F608DFF9ECB7
:10010300FAA9F0EDFB2289828A83ECFAE0A3C8C541
:1001130082C8CCC583CCF0A3C8C582C8CCC583CC68
:10012300DFEADEE880DB89828A83E493A3F208DFD7
:10013300F980CC88F0EF60010E4E60C388F0ED24A7
:1001430002B4040050B9F582EB2402B4040050AFAA
:1001530023234582239000B673BB010689828A83D9
:10016300E0225002E722BBFE02E32289828A83E473
:100173009322BB010CE58229F582E5833AF583E0FE
:10018300225006E92582F8E622BBFE06E92582F81D
:10019300E222E58229F582E5833AF583E49322BBE3
:1001A300010689828A83F0225002F722BBFE01F303
:1001B30022C5F0F8A3E028F0C5F0F8E582158270B7
:1001C300021583E038F022BB011A89828A83D0F0BA
:1001D300D0E0F8D0E0F9D0E0FAD0E0FBE8C0E0C02E
:1001E300F00202C15016E9F8D083D082D0E0F9D0F2
:1001F300E0FAD0E0FBC082C0830202AFBBFE16E987
:10020300F8D083D082D0E0F9D0E0FAD0E0FBC0820E
:10021300C0830202D322BB010DE58229F582E58367
:100223003AF5830202B85007E92582F80202A6BB19
:10023300FE07E92582F80202CAE58229F582E583F1
:100243003AF5830202DCD083D082F8E4937012740F
:100253000193700DA3A393F8740193F5828883E44B
:10026300737402936860EFA3A3A380DF8A838982F8
:10027300E473E5092582F582E5083583F583B5083E
:10028300048582092210AF06858209F5082285823A
:1002930009F508D2AF22E5092582F582E508358301
:1002A300F58322E6FB08E6FA08E6F922EBF608EA0C
:1002B300F608E9F622E0FBA3E0FAA3E0F922EBF06B
:1002C300A3EAF0A3E9F022E2FB08E2FA08E2F9224A
:1002D300EBF208EAF208E9F222E493FB740193FAE1
:1002E300740293F922787FE4F6D8FD750A00750845
:1002F30088750900750B0075810B02033B020452DC
:10030300E493A3F8E493A34003F68001F208DFF437
:100313008029E493A3F85407240CC8C333C4540FAF
:100323004420C8834004F456800146F6DFE4800B82
:100333000102040810204080900003E47E019360D2
:10034300BCA3FF543F30E509541FFEE493A36001AF
:100353000ECF54C025E060A840B8E493A3FAE49319
:10036300A3F8E493A3C8C582C8CAC583CAF0A3C8C7
:10037300C582C8CAC583CADFE9DEE780BE120100B1
:10038300020000002015197B000001010200010694
:1003930000FF0900A101150025FF7508952009003C
:1003A300810209009102C0FF03C3FF0392180902EF
:1003B300290001010080320904000002030000004B
:1003C3000921100100012218000705810320000103
:1003D300070502032000012A034E006F0072006428
:1003E30000690063002000530065006D006900632D
:1003F300006F006E0064007500630074006F00728C
:100403000048034E006F007200640069006300201F
:1004130000530065006D00690063006F006E0064A7
:10042300007500630074006F0072002000550053D4
:100433000042002000520046002000410064006199
:10044300007000740065007200FF03DAFF04047596
:1004530094EF90808D74FFF0A37400F0A3744DF0BB
:10046300A374FFF0A37400F0A3744CF0A374FFF023
:10047300A37407F0A374CAF07BFF7A0779E17F01C5
:10048300D1417A0B79C47D207F8191C27BFF7A0BA6
:1004930079DF7D207F0291C2D2AF7594EFD284F1D0
:1004A30064BF04FB908047E060F5C2847B017A80DF
:1004B30079687D20110CE4908047F0D28480E0902D
:1004C3008089EBF0A3EAF0A3E9F0AC07EC547FFFDB
:1004D30014FE7401A807088002C333D8FC90808CF3
:1004E300F0EC30E759908089E0FBA3E0FAA3E0F950
:1004F300EE75F003A42405F582E43480F583EBF074
:10050300A3EAF0A3E9F0908089E0FBA3E0FAA3E07B
:100513004A4B90C7AC6014E0FF90808CE0FEEF4E36
:1005230090C7ACF090C7DEE04EF022E0FF90808CE5
:10053300E0F4FEEF5E90C7ACF090C7DE806A908077
:1005430089E0FBA3E0FAA3E0F9EE75F003A4241419
:10055300F582E43480F583EBF0A3EAF0A3E9F090AD
:100563008089E0FBA3E0FAA3E04A4B90C7AD602784
:10057300E0FF90808CE0FEEF4E90C7ADF090C7DFB8
:10058300E04EF0EC75F002A424C5F974C735F08988
:1005930082F58374FFF022E0FF90808CE0F4FEEF9D
:1005A3005E90C7ADF090C7DFE05EF02290808EEBE7
:1005B300F0A3EAF0A3E9F090808DEFF0547F75F09B
:1005C30080A4FFC374009FF974C795F0AF019080B6
:1005D30093F0A3EFF090808DE0547F75F002A42494
:1005E300B5F974C735F0AF01908095F0A3EFF0E44F
:1005F300908092F0908091E0FFA3E0FEC39F502B88
:1006030090808EE0FBA3E0FAA3E0F98E827583006D
:100613003175FF908093E0FCA3E02EF582E43CF576
:1006230083EFF0908092E004F080C9908091E0FF26
:10063300908095E0FCA3E0F5828C83EFF02290801C
:100643008AEBF0A3EAF0A3E9F090802374FFF0A310
:100653007403F0A37480F090802674FFF0A37403F6
:10066300F0A374B1F090802974FFF0A37404F0A395
:10067300744CF090802C7404F0A314F0A37409F06C
:10068300A37404F09080337402F0E4908030F0900F
:100693008046F0908031F0A3F090808AE0F9A3E0E7
:1006A300FAA3E0908034C9F0A3EAF0A3E9F09080C4
:1006B3008DE0F9A3E0FAA3E0908037C9F0A3EAF054
:1006C300A3E9F0908090E0F9A3E0FAA3E090803AE8
:1006D300C9F0A3EAF0A3E9F0908093E0F9A3E0FA6C
:1006E300A3E090803DC9F0A3EAF0A3E9F0EF601125
:1006F30090C7D6E04408F07F327E00F175E054F7EE
:10070300F0D2BBD2BC90C7AE741DF090C7AC7401DD
:10071300F090C7A9741FF090C7AD7401F090C7AAF9
:10072300741FF090C7817410F0A37420F0A3743089
:10073300F0A37440F0A37450F090C78874C0F0A382
:100743007410F0A37420F0A37430F0A37440F0A3EA
:100753007450F090C7DE7401F0A3F0E4A3F0A3F0AB
:1007630022D310AF01C3C0D0908033E0FFD0D0922A
:10077300AF22AD07AC06F187F187ED1D70011C14A4
:100783004C70F3227FFA7E00F1917FFA7E00000025
:10079300000000EF1F70011E144E70F22290803093
:1007A300E030E10C75A0407F017E00F175E4F5A017
:1007B300227F507EC3EF1FAC0670011E4C60079072
:1007C3008088E070F0222290FFFF5175EFF075D919
:1007D30001850883850982E4F0900001417590FF4B
:1007E300FD5175EBF0A3EAF0A3E9F090FFFF51751B
:1007F3007B01850883850982A982AA8390FFFD1264
:100803000275EBF0A3EAF0A3E9F090000A12029953
:10081300E0FBA3E0FAA3E0F990FFFD120275EBF011
:10082300A3EAF0A3E9F090000A120299E0FBA3E027
:10083300FAA3E0F990FFFD120275EBF0A3EAF0A32F
:10084300E9F090000A120299E0FBA3E0FAA3E0F9B1
:10085300116ABF010A850883850982E0FF80027F50
:100863000090000A02027590FFFD120275EBF0A3DF
:10087300EAF0A3E9F090FFFF12027585088385096A
:1008830082E4F090000A120299E0FBA3E0FAA3E0ED
:10089300F9E41201A2850883850982A3E0FBA3E0A2
:1008A300FAA3E0F99000011201756406600221CDFC
:1008B30090000212017524DF7002214C1460026162
:1008C300B68508838509827401F0A3E0FBA3E0FAEF
:1008D300A3E0F990000412017575F007A424ADF5A7
:1008E30082E5F03403F583E493FB740193FA740215
:1008F30093F9C003C002C001900004120299E0FB07
:10090300A3E0FAA3E0F91201CA850883850982A34B
:10091300E0FBA3E0FAA3E0F990000412017575F07F
:1009230007A424B0F582E5F03403F583E493FF7E56
:1009330000900005120175FD7C00C3EF9DEE9C50F5
:10094300028076AE04AF05807085088385098274C2
:1009530001F0A3E0FBA3E0FAA3E0F9900004120185
:100963007575F007A424AAF582E5F03403F583E452
:1009730093FB740193FA740293F9C003C002C0019C
:10098300900004120299E0FBA3E0FAA3E0F912013C
:10099300CA850883850982A3E0FBA3E0FAA3E0F9F3
:1009A300900005120175FF7E00C374099FE49E50F9
:1009B300087C007D097F098000900007120299E0FE
:1009C300FBA3E0FAA3E0F9EF41E6850883850982FA
:1009D300A3E0FBA3E0FAA3E0F912015C20E50261C6
:1009E300B690000112017524FE605A147002417D15
:1009F30024FA7002615F14606614700241FB240ADA
:100A0300600261B68508838509827401F0E49080F1
:100A1300A4F09080A3F07B017A8079A3C003C00285
:100A2300C001900004120299E0FBA3E0FAA3E0F9ED
:100A33001201CA900007120299E0FBA3E0FAA3E0B7
:100A4300F9740341E68508838509827401F09000F7
:100A53000A120299E0FBA3E0FAA3E0F9E4619185AD
:100A630008838509827401F090000A120299E0FB61
:100A7300A3E0FAA3E0F974046191850883850982F0
:100A83007401F0A3E0FBA3E0FAA3E0F990000412E1
:100A93000175FF74017E00A807088005C333CE33B8
:100AA300CED8F9FF9080ABE0FDEF5D7F0060027F61
:100AB300019080A3EFF07B017A8079A3C003C00289
:100AC300C001900004120299E0FBA3E0FAA3E0F94D
:100AD3001201CA900007120299E0FBA3E0FAA3E017
:100AE300F974011201A290000A120299E0FBA3E03B
:100AF300FAA3E0F97404619185088385098274017E
:100B0300F0A3E0FBA3E0FAA3E0F990000312017560
:100B1300B4011A9080ABE0FF900004120175FE74DB
:100B230001A806088002C333D8FC4F80199080AB1C
:100B3300E0FF900004120175FE7401A8060880020C
:100B4300C333D8FCF45F9080ABF090000A12029993
:100B5300E0FBA3E0FAA3E0F97405803285088385FE
:100B63000982A3E0FBA3E0FAA3E0F99000021201DB
:100B730075FFB4031E8508838509827401F0900014
:100B83000A120299E0FBA3E0FAA3E0F9740512014B
:100B9300A28020EFB4021C90000A120299E0FBA38A
:100BA300E0FAA3E0F974051201A28508838509829E
:100BB3007401F0850883850982E0FF90000D02022D
:100BC3007590FFFD120275EBF0A3EAF0A3E9F0E4E0
:100BD300908088F07F6090000602027590FFFD12FE
:100BE3000275EBF0A3EAF0A3E9F090000312029977
:100BF300E0FBA3E0FAA3E0F912015CFF7E008508A5
:100C030083850982E0FBA3E0FAA3E0F978687C809E
:100C13007D011201369080477401F07FFF9000063A
:100C2300020275EF547F1425E0FEEF30E70BEE7EF2
:100C33000024B6F9EE34C7800BAF067E0074C62FCE
:100C4300F9EE34C7AF0190809FF0A3EFF0ED9080F1
:100C53009FB4010CE0FEA3E0F5828E837401F022C1
:100C6300E0FEA3E0F5828E83E4F02290C7E8E090F3
:100C73008040F090C7E9E0908041F090C7EAE090AF
:100C83008043F090C7EBE0908042F090C7ECE09097
:100C93008044F090C7EEE0908045F090C7EFE0D33A
:100CA3009400400690804574FFF0908040E05460CB
:100CB3006002A1A9A3E0B40B004002A1A7900CC756
:100CC300F8282873020CEA020CED020DA7020CEDC2
:100CD300020DA7020D3A020CE8020DA7020D46020F
:100CE3000D63020D98C154021003908040E024FE6E
:100CF30060232402703F908043E0B401169080414A
:100D0300E0908030B40106E054FDF08068E04402D6
:100D1300F08062A1C7908043E07018908041E0901A
:100D23008044B40106E0FFE4FD8004E0FF7D01910F
:100D3300268042A1C7A1C79080337403F0E490805A
:100D430031F022908033E024FC600E047010E490B4
:100D5300C700F090C7B504F022908031803A8064D8
:100D6300908043E01460150470299080337403F07D
:100D7300E4908031F090C7B47402F0229080337411
:100D830004F0908030E04401F0A37401F090C7B404
:100D930004F022802F908032E090C700F090C7B516
:100DA3007401F022801E908040E0FF5460FEBE205C
:100DB30013908045E0600BEF20E70790C7C574FFF1
:100DC300F022800790C7B47411F0227B017A8079F6
:100DD300A290FFFD120275EBF0A3EAF0A3E9F07B0A
:100DE300017A80799F90FFFD120275EBF0A3EAF080
:100DF300A3E9F07B017A807940C002908034A3E0BC
:100E0300FAA3E0F5828A83D002120273EF14602CF6
:100E130014603014603A24FE602204702D90809F89
:100E2300E0FBA3E0FAA3E0F9A3E0FF908045E0FE36
:100E3300C39FAD075002AD06F145E16990C7B47495
:100E430002F02290C7C574FFF02290C7B47411F06A
:100E530022908042E024FE602A14604224FA400279
:100E6300E13C24086002E143908023E0FBA3E0FA25
:100E7300A3E0F9908045E0FFC394127D125002ADC8
:100E830007E138908026E0FBA3E0FAA3E0F9908025
:100E930045E0FFC394297D295002AD07E1389080D6
:100EA30043E0FC70167B017A80792C908045E0FF4B
:100EB300C394047D045002AD07807AEC14C39402FA
:100EC3005077908029E0FBA3E0FAA3E0F9908043F8
:100ED300E0FF75F003A424FDF582E5F034FFF5830C
:100EE300120219C003C002C001908029E0FBA3E0F5
:100EF300FAA3E0F9EF14FF75F003A4F58285F083FC
:100F030012021912015CFE908045E0FDC39E50025F
:100F1300801D908029E0FBA3E0FAA3E0F975F003BC
:100F2300EFA4F58285F08312021912015CFFFDD054
:100F330001D002D003F145802D90C7B47411F02283
:100F4300A1CE908000EBF0A3EAF0A3E9F0A3EDF0CB
:100F5300908023E0FBA3E0FAA3E0F99000071201DD
:100F630075908004F022908003E0FD70219080460C
:100F7300E0B4010890C7B4E04410F02290804674B6
:100F830001F0E490C7B5F090C7B47402F0229080EA
:100F930004E0FFEDC39F5007908003E0FF8000E46F
:100FA300FEEEC39F5023908000E0FBA3E0FAA3E092
:100FB300F98E82758300120175FD74002EF582E4AB
:100FC30034C7F583EDF00E80D8908004E0FEEFC3C4
:100FD3009E50069080467401F090C7B5EFF0FD90E7
:100FE3008001E48DF01201B4908003E0C39FF022EE
:100FF30090C7D6E04408F02290C7D6E054F7F02219
:10100300908033E064037026908044E0600201D254
:10101300908026E0FBA3E0FAA3E0F9900007120119
:10102300755440C41313540390C701F001C5908055
:1010330033E06404600201D290C701F0908040E085
:10104300247F603F14603F2402600201D09080300F
:10105300E030E10890C7007402F08005E490C70017
:10106300F090C700E0FF908026E0FBA3E0FAA3E046
:10107300F99000071201755440C413135403FEEF93
:101083004E803FE4803C908044E030E70D547F7510
:10109300F002A424B4F974C7800F908044E0547F15
:1010A30075F002A424C4F974C735F0AF0190809F92
:1010B300F0A3EFF090809FE0FEA3E0F5828E83E043
:1010C300540190C700F090C7B57402F022800090DD
:1010D300C7B47411F022E4FD908030E054FBF0902B
:1010E3008033E0B40408908030E030E1010D90805B
:1010F300337405F090803DE0FBA3E0FAA3E04A4B94
:101103006011AF0590803DA3E0FAA3E0F5828A83E6
:1011130012027322C0E0C0F0C083C082C0D075D079
:1011230000C000C001C002C003C004C005C006C0A7
:101133000790C7A8E0120249117200117D041185BE
:1011430008119E0C11A81011B21811BD1C11CD204D
:1011530012742411CD2812742C11CD301274341151
:10116300CD3812743C11CD401274440000133A90F0
:10117300C7AB7401F0120C6E613A90C7AB7402F006
:10118300613A90C7AB7404F0908000E4F0A3F0A33D
:10119300F0A3F0A3F0908046F0613A90C7AB7408D7
:1011A300F011D9613A90C7AB7410F07155613A9060
:1011B300C7A97401F0120F69613A90C7AA7401F0CC
:1011C300908003E4F0120DCE613A90C7A8E024E8C2
:1011D300131313541F908097F0E0FF7401A80708BE
:1011E3008002C333D8FC90C7A9F0EF547F75F00297
:1011F300A424B4F974C735F0AF01908099F0A3EF3C
:10120300F0908097E0547F75F080A4FFC374009F33
:10121300F974C795F0AF0190809BF0A3EFF0908035
:1012230097E0547F75F002A424B5F974C735F0AF85
:101233000190809DF0A3EFF090809DE0FEA3E0AAD3
:1012430006F97B0190FFFD120275EBF0A3EAF0A310
:10125300E9F090809BE0FEA3E0AA06F97B01C002BF
:10126300908097E075F003A42402F582E434806152
:101273001590C7A8E024E4131313541F908097F02C
:10128300E0FF7401A807088002C333D8FC90C7AA03
:10129300F0EF547F75F002A424C4F974C735F0AF9E
:1012A30001908099F0A3EFF0908097E075F080A40F
:1012B300FFC374C09FF974C695F0AF0190809BF093
:1012C300A3EFF0908097E075F002A424C5F974C7EA
:1012D30035F0AF0190809DF0A3EFF090809DE0FE8C
:1012E300A3E0AA06F97B0190FFFD120275EBF0A3C0
:1012F300EAF0A3E9F090809BE0FEA3E0AA06F97B65
:1013030001C002908097E075F003A42411F582E4F4
:101313003480F583A3E0FAA3E0F5828A83D0021236
:101323000273908098EFF0A3E0FCA3E0FD90809D12
:10133300E0FAA3E0FB7181D007D006D005D004D03A
:1013430003D002D001D000D0D0D082D083D0F0D04F
:10135300E0329080337402F0E4908031F0A3F09097
:101363008030F0908037E0FBA3E0FAA3E04A4B60C3
:101373000C908037A3E0FAA3E0F912026F22A907C9
:101383008B828A83E9B4FF0474FFF022E930E70813
:101393008D828C837401F022E95460FFBF60088D55
:1013A300828C837402F022E97002F022E9F022C0F9
:1013B300E0C0F0C083C082C0D075D000C000C001BF
:1013C300C002C003C004C005C006C00790C7D6E072
:1013D30030E7267480F0908030E030E12390C7D668
:1013E300E04402F00000E054FD4401F07F077E007A
:1013F300120775E054FEF08007908030E04404F05B
:10140300908030E090803330E0057404F080037402
:1014130002F090803AA3E0FAA3E0F912026FD0073A
:10142300D006D005D004D003D002D001D000D0D054
:09143300D082D083D0F0D0E03269
:00000001FF
