:100000000202FE41800000418085004180410041A4
:10001000808400418083004180820000EF2411FF32
:10002000C147D310AF01C3C0D09080B9E0FFD0D09A
:1000300092AF22E49080CDF0EF547FFFE054804FE8
:09004000F0E0FD7F05C14722221A
:0D004B00E1DA7D707F07D147EF5470FF228E
:10005B000211227F08020850021577E709F608DF24
:10006B00FA8046E709F208DFFA803E88828C83E744
:10007B0009F0A3DFFA8032E309F608DFFA8078E3B0
:10008B0009F208DFFA807088828C83E309F0A3DF22
:10009B00FA806489828A83E0A3F608DFFA805889A4
:1000AB00828A83E0A3F208DFFA804C80D280FA8048
:1000BB00C680D4806980F28033801080A680EA806D
:1000CB009A80A880DA80E280CA803389828A83ECA6
:1000DB00FAE493A3C8C582C8CCC583CCF0A3C8C52A
:1000EB0082C8CCC583CCDFE9DEE7800D89828A83A9
:1000FB00E493A3F608DFF9ECFAA9F0EDFB22898271
:10010B008A83ECFAE0A3C8C582C8CCC583CCF0A324
:10011B00C8C582C8CCC583CCDFEADEE880DB898228
:10012B008A83E493A3F208DFF980CC88F0EF6001B7
:10013B000E4E60C388F0ED2402B4040050B9F58272
:10014B00EB2402B4040050AF23234582239000B666
:10015B0073BB010689828A83E0225002E722BBFE31
:10016B0002E32289828A83E49322BB010CE5822974
:10017B00F582E5833AF583E0225006E92582F8E61D
:10018B0022BBFE06E92582F8E222E58229F582E50B
:10019B00833AF583E49322BB010689828A83F0229A
:1001AB005002F722BBFE01F322C5F0F8A3E028F0C2
:1001BB00C5F0F8E582158270021583E038F022A3B2
:1001CB00F8E0C5F025F0F0E582158270021583E0AA
:1001DB00C838F0E822BB011A89828A83D0F0D0E0BC
:1001EB00F8D0E0F9D0E0FAD0E0FBE8C0E0C0F002D4
:1001FB0002D75016E9F8D083D082D0E0F9D0E0FADC
:10020B00D0E0FBC082C0830202C5BBFE16E9F8D06A
:10021B0083D082D0E0F9D0E0FAD0E0FBC082C0837B
:10022B000202E922BB010DE58229F582E5833AF54D
:10023B00830202CE5007E92582F80202BCBBFE07FF
:10024B00E92582F80202E0E58229F582E5833AF599
:10025B00830202F2D083D082F8E49370127401937C
:10026B00700DA3A393F8740193F5828883E47374E0
:10027B0002936860EFA3A3A380DF8A838982E47370
:10028B00E5092582F582E5083583F583B5080485F4
:10029B0082092210AF06858209F50822858209F5AD
:1002AB0008D2AF22E5092582F582E5083583F5836F
:1002BB0022E6FB08E6FA08E6F922EBF608EAF6086E
:1002CB00E9F622E0FBA3E0FAA3E0F922EBF0A3EAC4
:1002DB00F0A3E9F022E2FB08E2FA08E2F922EBF2E2
:1002EB0008EAF208E9F222E493FB740193FA740230
:1002FB0093F922787FE4F6D8FD750A0075088875A6
:10030B000900750B0075810B020351020468E4931D
:10031B00A3F8E493A34003F68001F208DFF48029ED
:10032B00E493A3F85407240CC8C333C4540F4420DC
:10033B00C8834004F456800146F6DFE4800B0102CB
:10034B00040810204080900003E47E019360BCA35E
:10035B00FF543F30E509541FFEE493A360010ECF19
:10036B0054C025E060A840B8E493A3FAE493A3F843
:10037B00E493A3C8C582C8CAC583CAF0A3C8C58203
:10038B00C8CAC583CADFE9DEE780BE1201000200DE
:10039B0000002015197B000001010200010600FF7F
:1003AB000900A101150025FF7508952009008102A0
:1003BB0009009102C0FF03D9FF03A8180902290005
:1003CB000101008032090400000203000000092132
:1003DB001001000122180007058103200001070509
:1003EB0002032000012A034E006F007200640069B3
:1003FB000063002000530065006D00690063006F0F
:10040B00006E0064007500630074006F007200489A
:10041B00034E006F007200640069006300200053FC
:10042B000065006D00690063006F006E006400756D
:10043B0000630074006F00720020005500530042EF
:10044B000020005200460020004100640061007053
:10045B0000740065007200FF03F0FF041A9080D156
:10046B0074FFF0A37400F0A37448F0A374FFF0A31F
:10047B007400F0A37447F0A374FFF0A3740FF0A300
:10048B007459F07BFF7A0B79747F01120FD47A0FBA
:10049B0079727D207F81B1077BFF7A0F798D7D206B
:1004AB007F02B107D10D7594EFD284D2AF1122EF39
:1004BB0064047026908000E06007B1F4E490800043
:1004CB00F0908041E0B401127B017A8079427D1F6C
:1004DB00120A8CE4908041F0B284908082E0B401E7
:1004EB00CCC290908022E0FF1133908023E0FDE49A
:1004FB00FF111CD290E4908082F080B19080CDEB04
:10050B00F0A3EAF0A3E9F0AC07EC547FFF14FE7400
:10051B0001A807088002C333D8FC9080D0F0EC30E0
:10052B00E7599080CDE0FBA3E0FAA3E0F9EE75F07C
:10053B0003A4248BF582E43480F583EBF0A3EAF07B
:10054B00A3E9F09080CDE0FBA3E0FAA3E04A4B9047
:10055B00C7AC6014E0FF9080D0E0FEEF4E90C7ACCC
:10056B00F090C7DEE04EF022E0FF9080D0E0F4FE8A
:10057B00EF5E90C7ACF090C7DE806A9080CDE0FB59
:10058B00A3E0FAA3E0F9EE75F003A4249AF582E454
:10059B003480F583EBF0A3EAF0A3E9F09080CDE093
:1005AB00FBA3E0FAA3E04A4B90C7AD6027E0FF90B6
:1005BB0080D0E0FEEF4E90C7ADF090C7DFE04EF07D
:1005CB00EC75F002A424C5F974C735F08982F58364
:1005DB0074FFF022E0FF9080D0E0F4FEEF5E90C756
:1005EB00ADF090C7DFE05EF022908021E024FE604A
:1005FB000A04700D9080827401F022908082740244
:10060B00F02275E610D292D2B97F3211337F02F10C
:10061B00997F02F15AE4FDFFD1677D06E4FF111CBF
:10062B00114D120A83120A41E4908041F07F01F1CF
:10063B00107F01F135D29022E0FD7F02C291EF24B1
:10064B0020F5E5C2C030C0FDAFE5AE058EE5C2C0FA
:10065B0030C0FD9080FCE5E5F0D291229080CDEF8B
:10066B00F0A3EDF07F02D1F89080CFEFF07F01D1B6
:10067B00F89080D0EFF09080CDE0FF24FA50062464
:10068B0007603C80537401A807088002C333D8FC71
:10069B00FD9080CFE04DF09080CEE060089080D050
:1006AB00E04DF080339080CDE0FF7401A807088007
:1006BB0002C333D8FCF4FF9080D0E05FF080199038
:1006CB0080CF743FF09080CEE060089080D0743F74
:1006DB00F08005E49080D0F09080CFD1439080D013
:1006EB00E0FD7F01C1479080CDEFF0E4FFC2918F19
:1006FB00E5C2C030C0FDAFE5E4F5E5C2C030C0FDDA
:10070B00AFE5D29122D1F19080CEEFF09080CDE089
:10071B00B40107A3E04401F080079080CEE054FEC3
:10072B00F09080CEE0FDE4FFC147D1F19080CEEF99
:10073B00F09080CDE0B40107A3E04402F080079075
:10074B0080CEE054FDF09080CEE0FDE4FFC147D1B8
:10075B00F19080CEEFF09080CDE014601014601A11
:10076B00240270219080CEE054F7F080189080CE58
:10077B00E04408F0E054FBF0800B9080CEE044089E
:10078B00F0E04404F09080CEE0FDE4FFC1479080A0
:10079B00CDEFF07F06D1F89080CEEFF09080CDE0DA
:1007AB00600C24FE70159080CEE044208006908073
:1007BB00CEE054DFF0E054F7F0800B9080CEE054A5
:1007CB00DFF0E04408F09080CEE0FD7F06C147C02B
:1007DB00E0C0F0C083C082C0D075D000C000C001A3
:1007EB00C002C003C004C005C006C007114DEF24F2
:1007FB00F0601424D0601D2420702F908084E4F0CE
:10080B0090808304F080235141908084E4F09080A9
:10081B0083F080165179EF700B7B017A807942124D
:10082B00005E80F09080417401F0D007D006D005B7
:10083B00D004D003D002D001D000D0D0D082D0834E
:10084B00D0F0D0E0329080DCEBF0A3EAF0A3E9F03B
:10085B009080DBEFF09080E37401F09080DCE0900F
:10086B0080E1F0EF14600C24FB600824FE60182478
:10087B00087031516F9080DFEFF0A3F0C291908040
:10088B00DBE0240AFF801951549080DBEFF0C39416
:10089B00075011516A9080DFEFF0A3F0C2917F6196
:1008AB00514A8009E49080E0F09080DFF09080E185
:1008BB00E0FF704A9080DCA3A3E09080E4F0E4F5C5
:1008CB00E5C2C09080E3E070119080E2E0FE908082
:1008DB00E4E0F8A606E004F08005E49080E3F03055
:1008EB00C0FD9080E2E5E5F09080DFE014F070CE83
:1008FB009080E2E0FE9080E4E0F8A6064132EF64DF
:10090B000170689080DCA3E0FAA3E0FF9080E4EA3A
:10091B00F0A3EFF0E4F5E5C2C09080E3E070229025
:10092B0080E2E0FF9080E4E0FCA3E0F5828C83EFB3
:10093B00F09080E5E004F070069080E4E004F08035
:10094B0005E49080E3F030C0FD9080E2E5E5F090A7
:10095B0080DFE014F070BD9080E2E0FF9080E4E077
:10096B00FCA3E0F5828C83EFF041329080E1E064F0
:10097B00FE704A9080DCA3A3E09080E4F0E4F5E500
:10098B00C2C09080E3E070119080E2E0FF9080E4C1
:10099B00E0F8EFF2E004F08005E49080E3F030C083
:1009AB00FD9080E2E5E5F09080DFE014F070CE90F2
:1009BB0080E2E0FF9080E4E0F8EFF2806A9080DC68
:1009CB00E0F9A3E0FAA3E09080E4C9F0A3EAF0A376
:1009DB00E9F0E4F5E5C2C09080E3E070209080E29E
:1009EB00E0FF9080E4E0FBA3E0FAA3E0F9EF120153
:1009FB00A29080E5E475F0011201B48005E49080CB
:100A0B00E3F030C0FD9080E2E5E5F09080DFE0148C
:100A1B00F070BF9080E2E0FF9080E4E0FBA3E0FA8F
:100A2B00A3E0F9EF1201A2D2919080DBE0FE90805F
:100A3B00E0E0FDEDFF22C2917FE1514AD291228F7E
:100A4B00E5C2C030C0FDAFE5225161EF540EFFE4AB
:100A5B00C313EF13FF22C2917FFF514AD291227F22
:100A6B00600206F87F031206F8EF2402FF227F17BD
:100A7B001206F8EF5401FF22C2917FE2514AD29144
:100A8B00229080CDEBF0A3EAF0A3E9F0A3EDF07197
:100A9B005E9080857401F09080D0E0FF7E0078013D
:100AAB007C807D019080CDE0FBA3E0FAA3E0F912FE
:100ABB0001367B017A8079019080D57420F07F011B
:100ACB009080D2EBF0A3EAF0A3E9F09080D1EFF0A5
:100ADB00547F75F080A4FFC374009FF974C795F021
:100AEB00AF019080D7F0A3EFF09080D1E0547F75E9
:100AFB00F002A424B5F974C735F0AF019080D9F09A
:100B0B00A3EFF0E49080D6F09080D5E0FFA3E0FE59
:100B1B00C39F502C9080D2E0FBA3E0FAA3E0F98EA8
:100B2B0082758300120175FF9080D7E0FCA3E02E45
:100B3B00F582E43CF583EFF09080D6E004F080C8BA
:100B4B009080D5E0FF9080D9E0FCA3E0F5828C8308
:100B5B00EFF0227F507EC3EF1FAC0670011E4C607E
:100B6B0007908085E070F0222290FFFD12028BEB44
:100B7B00F0A3EAF0A3E9F090FFFF12028B7B018553
:100B8B000883850982A982AA8390FFFD12028BEB51
:100B9B00F0A3EAF0A3E9F090000A1202AFE0FBA386
:100BAB00E0FAA3E0F990FFFD12028BEBF0A3EAF061
:100BBB00A3E9F090000A1202AFE0FBA3E0FAA3E076
:100BCB00F990FFFD12028BEBF0A3EAF0A3E9F09092
:100BDB00000A1202AFE0FBA3E0FAA3E0F971FFBF3A
:100BEB00010A850883850982E0FF80027F0090005F
:100BFB000A02028B90FFFD12028BEBF0A3EAF0A32B
:100C0B00E9F090FFFF12028B850883850982E4F0DF
:100C1B0090000A1202AFE0FBA3E0FAA3E0F9E412A2
:100C2B0001A2850883850982A3E0FBA3E0FAA3E078
:100C3B00F990000112017564066002A16290000236
:100C4B0012017524DF700281E1146002E14B85080B
:100C5B00838509827401F0A3E0FBA3E0FAA3E0F91A
:100C6B0090000412017575F007A424C3F582E5F01A
:100C7B003403F583E493FB740193FA740293F9C084
:100C8B0003C002C0019000041202AFE0FBA3E0FA24
:100C9B00A3E0F91201E0850883850982A3E0FBA399
:100CAB00E0FAA3E0F990000412017575F007A42493
:100CBB00C6F582E5F03403F583E493FF7E009000E4
:100CCB0005120175FD7C00C3EF9DEE9C50028076F2
:100CDB00AE04AF0580708508838509827401F0A38B
:100CEB00E0FBA3E0FAA3E0F990000412017575F0A4
:100CFB0007A424C0F582E5F03403F583E493FB7479
:100D0B000193FA740293F9C003C002C0019000046E
:100D1B001202AFE0FBA3E0FAA3E0F91201E08508B1
:100D2B0083850982A3E0FBA3E0FAA3E0F990000519
:100D3B00120175FF7E00C374099FE49E50087C006E
:100D4B007D097F0980009000071202AFE0FBA3E052
:100D5B00FAA3E0F9EFC17B850883850982A3E0FB49
:100D6B00A3E0FAA3E0F912015C20E502E14B90004D
:100D7B000112017524FE605A147002C11224FA701C
:100D8B0002C1F4146066147002C190240A6002E17F
:100D9B004B8508838509827401F0E49080F4F09010
:100DAB0080F3F07B017A8079F3C003C002C001901D
:100DBB0000041202AFE0FBA3E0FAA3E0F91201E09A
:100DCB009000071202AFE0FBA3E0FAA3E0F9740373
:100DDB00C17B8508838509827401F090000A120299
:100DEB00AFE0FBA3E0FAA3E0F9E4E12685088385F5
:100DFB0009827401F090000A1202AFE0FBA3E0FA43
:100E0B00A3E0F97404E1268508838509827401F057
:100E1B00A3E0FBA3E0FAA3E0F9900004120175FF35
:100E2B0074017E00A807088005C333CE33CED8F9F2
:100E3B00FF9080FBE0FDEF5D7F0060027F01908003
:100E4B00F3EFF07B017A8079F3C003C002C001900D
:100E5B0000041202AFE0FBA3E0FAA3E0F91201E0F9
:100E6B009000071202AFE0FBA3E0FAA3E0F97401D4
:100E7B001201A290000A1202AFE0FBA3E0FAA3E07A
:100E8B00F97404E1268508838509827401F0A3E0D7
:100E9B00FBA3E0FAA3E0F9900003120175B4011A69
:100EAB009080FBE0FF900004120175FE7401A80610
:100EBB00088002C333D8FC4F80199080FBE0FF9071
:100ECB000004120175FE7401A806088002C333D812
:100EDB00FCF45F9080FBF090000A1202AFE0FBA3E2
:100EEB00E0FAA3E0F974058032850883850982A3B3
:100EFB00E0FBA3E0FAA3E0F9900002120175FFB446
:100F0B00031E8508838509827401F090000A120282
:100F1B00AFE0FBA3E0FAA3E0F974051201A2802075
:100F2B00EFB4021C90000A1202AFE0FBA3E0FAA39D
:100F3B00E0F974051201A28508838509827401F01A
:100F4B00850883850982E0FF90000D02028B90FFDC
:100F5B00FF12028BEFF075D901850883850982E4B6
:100F6B00F090000102028B90FFFD12028BEBF0A3BD
:100F7B00EAF0A3E9F0E4908085F07F609000060230
:100F8B00028B90FFFD12028BEBF0A3EAF0A3E9F0CA
:100F9B009000031202AFE0FBA3E0FAA3E0F9120109
:100FAB005CFF7E00850883850982E0FBA3E0FAA342
:100FBB00E0F978217C807D0112013690800074016C
:100FCB00F07FFF90000602028B9080CEEBF0A3EA3D
:100FDB00F0A3E9F09080A974FFF0A37403F0A3745D
:100FEB0096F09080AC74FFF0A37403F0A374C7F079
:100FFB009080AF74FFF0A37404F0A37462F0908040
:10100B00B27404F0A314F0A37409F0A37404F09069
:10101B0080B97402F0E49080B6F09080CCF09080B0
:10102B00B7F0A3F09080CEE0F9A3E0FAA3E09080B4
:10103B00BAC9F0A3EAF0A3E9F09080D1E0F9A3E0FC
:10104B00FAA3E09080BDC9F0A3EAF0A3E9F0908089
:10105B00D4E0F9A3E0FAA3E09080C0C9F0A3EAF0D2
:10106B00A3E9F09080D7E0F9A3E0FAA3E09080C366
:10107B00C9F0A3EAF0A3E9F0EF601190C7D6E04402
:10108B0008F07F327E0011F7E054F7F0D2BBD2BCF0
:10109B0090C7AE741DF090C7AC7401F090C7A974E3
:1010AB001FF090C7AD7401F090C7AA741FF090C7E2
:1010BB00817410F0A37420F0A37430F0A37440F08B
:1010CB00A37450F090C78874C0F0A37410F0A3748D
:1010DB0020F0A37430F0A37440F0A37450F090C7C9
:1010EB00DE7401F0A3F0E4A3F0A3F022AD07AC068D
:1010FB0031093109ED1D70011C144C70F3227FFA7C
:10110B007E0031137FFA7E000000000000EF1F709D
:10111B00011E144E70F222C0E0C0F0C083C082C02A
:10112B00D075D000C000C001C002C003C004C00510
:10113B00C006C00790C7D6E030E7257480F09080DA
:10114B00B6E030E12290C7D6E04402F00000E05454
:10115B00FD4401F07F077E0011F7E054FEF080079D
:10116B009080B6E04404F09080B6E09080B930E017
:10117B00057404F080037402F09080C0A3E0FAA31E
:10118B00E0F9120285D007D006D005D004D003D0E9
:10119B0002D001D000D0D0D082D083D0F0D0E032BA
:1011AB00EF547F1425E0FEEF30E70BEE7E0024B604
:1011BB00F9EE34C7800BAF067E0074C62FF9EE3400
:1011CB00C7AF019080EFF0A3EFF0ED9080EFB4018B
:1011DB000CE0FEA3E0F5828E837401F022E0FEA307
:1011EB00E0F5828E83E4F02290C7E8E09080C6F0B1
:1011FB0090C7E9E09080C7F090C7EAE09080C9F013
:10120B0090C7EBE09080C8F090C7ECE09080CAF0FC
:10121B0090C7EEE09080CBF090C7EFE0D394004006
:10122B00069080CB74FFF09080C6E0546060026142
:10123B002DA3E0B40B004002612B90124CF8282830
:10124B007302126F02127102132B02127102132B13
:10125B000212BE02126D02132B0212CA0212E70215
:10126B00131C61D8E1E09080C6E024FE60232402C9
:10127B00703F9080C9E0B401169080C7E09080B6B3
:10128B00B40106E054FDF08068E04402F080626136
:10129B004B9080C9E070189080C7E09080CAB40171
:1012AB0006E0FFE4FD8004E0FF7D0131AB8042618D
:1012BB004B614B9080B97403F0E49080B7F02290AF
:1012CB0080B9E024FC600E047010E490C700F0902D
:1012DB00C7B504F0229080B7803A80649080C9E053
:1012EB001460150470299080B97403F0E49080B7F2
:1012FB00F090C7B47402F0229080B97404F090801F
:10130B00B6E04401F0A37401F090C7B404F022805E
:10131B002F9080B8E090C700F090C7B57401F02211
:10132B00801E9080C6E0FF5460FEBE20139080CBE1
:10133B00E0600BEF20E70790C7C574FFF022800732
:10134B0090C7B47411F0227B017A8079F290FFFD83
:10135B0012028BEBF0A3EAF0A3E9F07B017A807920
:10136B00EF90FFFD12028BEBF0A3EAF0A3E9F07B09
:10137B00017A8079C6C0029080BAA3E0FAA3E0F5A7
:10138B00828A83D002120289EF14602C146030140D
:10139B00603A24FE602204702D9080EFE0FBA3E006
:1013AB00FAA3E0F9A3E0FF9080CBE0FEC39FAD076B
:1013BB005002AD0691C981ED90C7B47402F0229032
:1013CB00C7C574FFF02290C7B47411F0229080C887
:1013DB00E024FE602A14604224FA400281C02408F3
:1013EB00600281C79080A9E0FBA3E0FAA3E0F9902B
:1013FB0080CBE0FFC394127D125002AD0781BC90ED
:10140B0080ACE0FBA3E0FAA3E0F99080CBE0FFC354
:10141B0094297D295002AD0781BC9080C9E0FC70F6
:10142B00167B017A8079B29080CBE0FFC394047D68
:10143B00045002AD07807AEC14C39402507790806D
:10144B00AFE0FBA3E0FAA3E0F99080C9E0FF75F0F1
:10145B0003A424FDF582E5F034FFF58312022FC0BF
:10146B0003C002C0019080AFE0FBA3E0FAA3E0F958
:10147B00EF14FF75F003A4F58285F08312022F128F
:10148B00015CFE9080CBE0FDC39E5002801D9080DE
:10149B00AFE0FBA3E0FAA3E0F975F003EFA4F5824C
:1014AB0085F08312022F12015CFFFDD001D002D018
:1014BB000391C9802D90C7B47411F02261529080B2
:1014CB0086EBF0A3EAF0A3E9F0A3EDF09080A9E09E
:1014DB00FBA3E0FAA3E0F990000712017590808A54
:1014EB00F022908089E0FD70219080CCE0B401085F
:1014FB0090C7B4E04410F0229080CC7401F0E490DB
:10150B00C7B5F090C7B47402F02290808AE0FFED6B
:10151B00C39F5007908089E0FF8000E4FEEEC39FDD
:10152B005023908086E0FBA3E0FAA3E0F98E82754E
:10153B008300120175FD74002EF582E434C7F58328
:10154B00EDF00E80D890808AE0FEEFC39E5006909F
:10155B0080CC7401F090C7B5EFF0FD908087E48DDF
:10156B00F01201B4908089E0C39FF022C0E0C0F07C
:10157B00C083C082C0D075D000C000C001C002C003
:10158B0003C004C005C006C00790C7A8E012025FE5
:10159B0015D20015DC0415E40815FD0C1608101601
:1015AB001218161C1C162B2016D224162B2816D2FA
:1015BB002C162B3016D234162B3816D23C162B4049
:1015CB0016D2440000179990C7AB7401F031F3E1C8
:1015DB009990C7AB7402F0E19990C7AB7404F0908B
:1015EB008086E4F0A3F0A3F0A3F0A3F09080CCF0FE
:1015FB00E19990C7AB7408F01218B7E19990C7AB9B
:10160B007410F0F1B4E19990C7A97401F091EDE178
:10161B009990C7AA7401F0908089E4F07152E19916
:10162B0090C7A8E024E8131313541F9080E7F0E051
:10163B00FF7401A807088002C333D8FC90C7A9F038
:10164B00EF547F75F002A424B4F974C735F0AF01E1
:10165B009080E9F0A3EFF09080E7E0547F75F08085
:10166B00A4FFC374009FF974C795F0AF019080EB92
:10167B00F0A3EFF09080E7E0547F75F002A424B55F
:10168B00F974C735F0AF019080EDF0A3EFF09080C7
:10169B00EDE0FEA3E0AA06F97B0190FFFD12028BA1
:1016AB00EBF0A3EAF0A3E9F09080EBE0FEA3E0AA55
:1016BB0006F97B01C0029080E7E075F003A4248853
:1016CB00F582E43480E17390C7A8E024E41313138C
:1016DB00541F9080E7F0E0FF7401A807088002C355
:1016EB0033D8FC90C7AAF0EF547F75F002A424C442
:1016FB00F974C735F0AF019080E9F0A3EFF090805B
:10170B00E7E075F080A4FFC374C09FF974C695F031
:10171B00AF019080EBF0A3EFF09080E7E075F00263
:10172B00A424C5F974C735F0AF019080EDF0A3EF99
:10173B00F09080EDE0FEA3E0AA06F97B0190FFFD9F
:10174B0012028BEBF0A3EAF0A3E9F09080EBE0FE42
:10175B00A3E0AA06F97B01C0029080E7E075F003D5
:10176B00A42497F582E43480F583A3E0FAA3E0F593
:10177B00828A83D0021202899080E8EFF0A3E0FC0A
:10178B00A3E0FD9080EDE0FAA3E0FB1218F5D00783
:10179B00D006D005D004D003D002D001D000D0D0D9
:1017AB00D082D083D0F0D0E0329080B97402F0E4D4
:1017BB009080B7F0A3F09080B6F09080BDE0FBA3D3
:1017CB00E0FAA3E04A4B600C9080BDA3E0FAA3E0E3
:1017DB00F9120285229080B9E0640370279080CAC9
:1017EB00E060030218B09080ACE0FBA3E0FAA3E04A
:1017FB00F99000071201755440C41313540390C79A
:10180B0001F001A39080B9E06404600201B090C7BD
:10181B0001F09080C6E0247F603F14603F2402609B
:10182B000201AE9080B6E030E10890C7007402F080
:10183B008005E490C700F090C700E0FF9080ACE01B
:10184B00FBA3E0FAA3E0F99000071201755440C422
:10185B0013135403FEEF4E803FE4803C9080CAE0AC
:10186B0030E70D547F75F002A424B4F974C7800FD0
:10187B009080CAE0547F75F002A424C4F974C73574
:10188B00F0AF019080EFF0A3EFF09080EFE0FEA3BC
:10189B00E0F5828E83E0540190C700F090C7B574D9
:1018AB0002F022800090C7B47411F022E4FD908006
:1018BB00B6E054FBF09080B9E0B404089080B6E039
:1018CB0030E1010D9080B97405F09080C3E0FBA36B
:1018DB00E0FAA3E04A4B6011AF059080C3A3E0FA96
:1018EB00A3E0F5828A8312028922A9078B828A835D
:1018FB00E9B4FF0474FFF022E930E7088D828C8392
:10190B007401F022E95460FFBF60088D828C8374F0
:0B191B0002F022E97002F022E9F02245
:00000001FF
